{
  "contractName": "lib7070",
  "abi": [
    {
      "constant": false,
      "inputs": [
        {
          "name": "_map",
          "type": "lib7070.input7070Map storage"
        },
        {
          "name": "_timestamp",
          "type": "uint256"
        },
        {
          "name": "_mc",
          "type": "uint8"
        }
      ],
      "name": "readInput",
      "outputs": [],
      "payable": false,
      "stateMutability": "nonpayable",
      "type": "function"
    }
  ],
  "bytecode": "0x60606040523415600e57600080fd5b60b88061001c6000396000f300606060405260043610603e5763ffffffff7c0100000000000000000000000000000000000000000000000000000000600035041663c546ade381146043575b600080fd5b605560043560243560ff604435166057565b005b6020604051908101604090815260ff8316825260008481526020869052208151815460ff191660ff91909116179055505050505600a165627a7a723058204f62fb3de358ac10aa8b36a691aa15a1dd411641200c020ce5e4c7c72a570df40029",
  "source": "pragma solidity ^0.4.16;\n\nlibrary lib7070 {\n\n  struct input7070 {\n    uint8 maxCurrent;      // input from \"MaxChargeCurrentA\"\n  }\n\n  struct input7070Map {\n    mapping(uint=>input7070) inputMap;\n  } \n\n  function readInput (input7070Map storage _map, uint _timestamp, uint8 _mc) public {\n    _map.inputMap[_timestamp] = input7070(_mc);\n  }\n\n}\n",
  "sourcePath": "C:\\Users\\qianc\\Documents\\Selber\\selber_eth_poc\\contracts\\lib7070.sol",
  "compiler": {
    "name": "solc",
    "version": "0.4.18+commit.9cf6e910.Emscripten.clang"
  },
  "schemaVersion": "1.0.1",
  "updatedAt": "2018-02-24T19:12:21.876Z"
}