{
  "contractName": "lib8080",
  "abi": [
    {
      "constant": false,
      "inputs": [
        {
          "name": "_map",
          "type": "lib8080.input8080Map storage"
        },
        {
          "name": "_timestamp",
          "type": "uint256"
        },
        {
          "name": "_id",
          "type": "uint256"
        },
        {
          "name": "_p",
          "type": "int8"
        },
        {
          "name": "_ti",
          "type": "uint32"
        },
        {
          "name": "_te",
          "type": "uint32"
        }
      ],
      "name": "readInput",
      "outputs": [],
      "payable": false,
      "stateMutability": "nonpayable",
      "type": "function"
    },
    {
      "constant": false,
      "inputs": [
        {
          "name": "_map",
          "type": "lib8080.input8080Map storage"
        },
        {
          "name": "_id",
          "type": "uint256"
        }
      ],
      "name": "setAllowedID",
      "outputs": [],
      "payable": false,
      "stateMutability": "nonpayable",
      "type": "function"
    }
  ],
  "bytecode": "0x6060604052341561000f57600080fd5b6101958061001e6000396000f30060606040526004361061004b5763ffffffff7c0100000000000000000000000000000000000000000000000000000000600035041663a430b2898114610050578063b71ae2f814610078575b600080fd5b61007660043560243560443560643560000b63ffffffff60843581169060a43516610086565b005b61007660043560243561014d565b60008481526020879052604090205460ff1615156001146100a657600080fd5b60606040519081016040908152600085810b835263ffffffff8086166020808601919091529085168385015287825260018a0181528282208983529052208151815460009190910b60ff1660ff199091161781556020820151815463ffffffff919091166101000264ffffffff00199091161781556040820151815463ffffffff91909116650100000000000268ffffffff00000000001990911617905550505050505050565b600090815260209190915260409020805460ff191660011790555600a165627a7a723058201126b3b5f08e41af5309c0eb04a11db0381787b203e531e410a6e7dc9a8364920029",
  "source": "pragma solidity ^0.4.16;\n\nlibrary lib8080 {\n\n  struct input8080 {\n    int8 power;      // input from \"Power\", x10 (w) \n    uint32 totalImport;    // input from \"TotalImport\": x100 (wh)\n    uint32 totalExport;    // input from \"TotalExport\": x100 (wh)\n  }\n\n  struct input8080Map {\n    mapping(uint=>bool) allowedID;\n    mapping(uint=>mapping(uint=>input8080)) inputMap;\n  } \n\n  function readInput (input8080Map storage _map, uint _timestamp, uint _id, int8 _p, uint32 _ti, uint32 _te) public {\n    require(_map.allowedID[_id] == true);\n    _map.inputMap[_id][_timestamp] = input8080(_p, _ti, _te);\n  }\n\n  function setAllowedID (input8080Map storage _map, uint _id) public {\n    _map.allowedID[_id] = true;\n  }\n\n}\n",
  "sourcePath": "C:\\Users\\qianc\\Documents\\Selber\\selber_eth_poc\\contracts\\lib8080.sol",
  "compiler": {
    "name": "solc",
    "version": "0.4.18+commit.9cf6e910.Emscripten.clang"
  },
  "schemaVersion": "1.0.1",
  "updatedAt": "2018-02-24T19:12:21.883Z"
}