{
  "contractName": "lib9090",
  "abi": [
    {
      "constant": false,
      "inputs": [
        {
          "name": "_map",
          "type": "lib9090.input9090Map storage"
        },
        {
          "name": "_timestamp",
          "type": "uint256"
        },
        {
          "name": "_p",
          "type": "uint8"
        },
        {
          "name": "_dir",
          "type": "bool"
        },
        {
          "name": "_e",
          "type": "uint32"
        }
      ],
      "name": "readInput",
      "outputs": [],
      "payable": false,
      "stateMutability": "nonpayable",
      "type": "function"
    }
  ],
  "bytecode": "0x60606040523415600e57600080fd5b6101198061001d6000396000f300606060405260043610603e5763ffffffff7c0100000000000000000000000000000000000000000000000000000000600035041663de09911281146043575b600080fd5b606360043560243560ff60443516606435151563ffffffff608435166065565b005b6060604051908101604090815260ff8516825283151560208084019190915263ffffffff841682840152600087815290889052208151815460ff191660ff91909116178155602082015181549015156101000261ff00199091161781556040820151815463ffffffff91909116620100000265ffffffff0000199091161790555050505050505600a165627a7a72305820693d9d885a03508a2d13adf3f32c68ca7ea3e39e31e40c9770ee751c79bd13500029",
  "source": "pragma solidity ^0.4.16;\n\nlibrary lib9090 {\n\n  struct input9090 {\n    uint8 power;      // input from \"1-0:15.7.0*255\", x10 (w) \n    bool direction;   // input from \"flowdirection\": true +; false -\n    uint32 energy;    // input from \"1-0:2.8.0*255\": x100 (wh)\n  }\n\n  struct input9090Map {\n    mapping(uint=>input9090) inputMap;\n  } \n\n  function readInput (input9090Map storage _map, uint _timestamp, uint8 _p, bool _dir, uint32 _e) public {\n    _map.inputMap[_timestamp] = input9090(_p, _dir, _e);\n  }\n\n}\n",
  "sourcePath": "C:\\Users\\qianc\\Documents\\Selber\\selber_eth_poc\\contracts\\lib9090.sol",
  "compiler": {
    "name": "solc",
    "version": "0.4.18+commit.9cf6e910.Emscripten.clang"
  },
  "schemaVersion": "1.0.1",
  "updatedAt": "2018-02-24T19:12:21.877Z"
}