{
  "contractName": "Read",
  "abi": [
    {
      "constant": false,
      "inputs": [
        {
          "name": "_p",
          "type": "uint8"
        },
        {
          "name": "_dir",
          "type": "bool"
        },
        {
          "name": "_e",
          "type": "uint32"
        }
      ],
      "name": "read9090",
      "outputs": [],
      "payable": false,
      "stateMutability": "nonpayable",
      "type": "function"
    },
    {
      "constant": true,
      "inputs": [],
      "name": "get7070",
      "outputs": [
        {
          "name": "",
          "type": "uint8"
        }
      ],
      "payable": false,
      "stateMutability": "view",
      "type": "function"
    },
    {
      "constant": true,
      "inputs": [],
      "name": "get9090",
      "outputs": [
        {
          "name": "_p",
          "type": "uint8"
        },
        {
          "name": "_dir",
          "type": "bool"
        },
        {
          "name": "_e",
          "type": "uint32"
        }
      ],
      "payable": false,
      "stateMutability": "view",
      "type": "function"
    },
    {
      "constant": true,
      "inputs": [
        {
          "name": "_id",
          "type": "uint256"
        }
      ],
      "name": "get8080",
      "outputs": [
        {
          "name": "_p",
          "type": "int8"
        },
        {
          "name": "_ti",
          "type": "uint32"
        },
        {
          "name": "_te",
          "type": "uint32"
        }
      ],
      "payable": false,
      "stateMutability": "view",
      "type": "function"
    },
    {
      "constant": false,
      "inputs": [
        {
          "name": "_id",
          "type": "uint256"
        },
        {
          "name": "_p",
          "type": "int8"
        },
        {
          "name": "_ti",
          "type": "uint32"
        },
        {
          "name": "_te",
          "type": "uint32"
        }
      ],
      "name": "read8080",
      "outputs": [],
      "payable": false,
      "stateMutability": "nonpayable",
      "type": "function"
    },
    {
      "constant": false,
      "inputs": [
        {
          "name": "_mc",
          "type": "uint8"
        }
      ],
      "name": "read7070",
      "outputs": [],
      "payable": false,
      "stateMutability": "nonpayable",
      "type": "function"
    },
    {
      "inputs": [],
      "payable": false,
      "stateMutability": "nonpayable",
      "type": "constructor"
    }
  ],
  "bytecode": "0x6060604052341561000f57600080fd5b73__lib8080_______________________________63b71ae2f86001600b6040517c010000000000000000000000000000000000000000000000000000000063ffffffff85160281526004810192909252602482015260440160006040518083038186803b151561007f57600080fd5b6102c65a03f4151561009057600080fd5b505050600173__lib8080_______________________________63b71ae2f89091600c6040517c010000000000000000000000000000000000000000000000000000000063ffffffff85160281526004810192909252602482015260440160006040518083038186803b151561010557600080fd5b6102c65a03f4151561011657600080fd5b5050506103de806101286000396000f30060606040526004361061005e5763ffffffff60e060020a6000350416630104101081146100635780630253f21d1461008c5780632a788bb0146100b55780638eafe828146100f6578063b413eff11461013d578063e9cd4a7714610168575b600080fd5b341561006e57600080fd5b61008a60ff60043516602435151563ffffffff60443516610181565b005b341561009757600080fd5b61009f610215565b60405160ff909116815260200160405180910390f35b34156100c057600080fd5b6100c861022d565b60405160ff9093168352901515602083015263ffffffff166040808301919091526060909101905180910390f35b341561010157600080fd5b61010c60043561025d565b604051600093840b90930b835263ffffffff9182166020840152166040808301919091526060909101905180910390f35b341561014857600080fd5b61008a60043560243560000b63ffffffff60443581169060643516610298565b341561017357600080fd5b61008a60ff60043516610335565b73__lib9090_______________________________63de09911260034286868660405163ffffffff87811660e060020a0282526004820196909652602481019490945260ff92909216604484015215156064830152909116608482015260a40160006040518083038186803b15156101f857600080fd5b6102c65a03f4151561020957600080fd5b50504260065550505050565b60045460009081526020819052604090205460ff1690565b60065460009081526003602052604090205460ff8082169261010083049091169162010000900463ffffffff1690565b600090815260026020908152604080832060055484529091528120549081900b9163ffffffff61010083048116926501000000000090041690565b73__lib8080_______________________________63a430b2896001428787878760405163ffffffff88811660e060020a028252600482019790975260248101959095526044850193909352600091820b820b606485015284166084840152921660a482015260c401906040518083038186803b151561031757600080fd5b6102c65a03f4151561032857600080fd5b5050426005555050505050565b73__lib7070_______________________________63c546ade36000428460405160e060020a63ffffffff86160281526004810193909352602483019190915260ff16604482015260640160006040518083038186803b151561039757600080fd5b6102c65a03f415156103a857600080fd5b50504260045550505600a165627a7a72305820e5d539c25120859b8fae591db29aab5d5a2ce618a84c8e7828e61d93c038bd120029",
  "deployedBytecode": "0x60606040526004361061005e5763ffffffff60e060020a6000350416630104101081146100635780630253f21d1461008c5780632a788bb0146100b55780638eafe828146100f6578063b413eff11461013d578063e9cd4a7714610168575b600080fd5b341561006e57600080fd5b61008a60ff60043516602435151563ffffffff60443516610181565b005b341561009757600080fd5b61009f610215565b60405160ff909116815260200160405180910390f35b34156100c057600080fd5b6100c861022d565b60405160ff9093168352901515602083015263ffffffff166040808301919091526060909101905180910390f35b341561010157600080fd5b61010c60043561025d565b604051600093840b90930b835263ffffffff9182166020840152166040808301919091526060909101905180910390f35b341561014857600080fd5b61008a60043560243560000b63ffffffff60443581169060643516610298565b341561017357600080fd5b61008a60ff60043516610335565b73__lib9090_______________________________63de09911260034286868660405163ffffffff87811660e060020a0282526004820196909652602481019490945260ff92909216604484015215156064830152909116608482015260a40160006040518083038186803b15156101f857600080fd5b6102c65a03f4151561020957600080fd5b50504260065550505050565b60045460009081526020819052604090205460ff1690565b60065460009081526003602052604090205460ff8082169261010083049091169162010000900463ffffffff1690565b600090815260026020908152604080832060055484529091528120549081900b9163ffffffff61010083048116926501000000000090041690565b73__lib8080_______________________________63a430b2896001428787878760405163ffffffff88811660e060020a028252600482019790975260248101959095526044850193909352600091820b820b606485015284166084840152921660a482015260c401906040518083038186803b151561031757600080fd5b6102c65a03f4151561032857600080fd5b5050426005555050505050565b73__lib7070_______________________________63c546ade36000428460405160e060020a63ffffffff86160281526004810193909352602483019190915260ff16604482015260640160006040518083038186803b151561039757600080fd5b6102c65a03f415156103a857600080fd5b50504260045550505600a165627a7a72305820e5d539c25120859b8fae591db29aab5d5a2ce618a84c8e7828e61d93c038bd120029",
  "source": "pragma solidity ^0.4.16;\n\nimport \"./lib7070.sol\";\nimport \"./lib8080.sol\";\nimport \"./lib9090.sol\";\n\ncontract Read {\n\n  using lib7070 for *;\n  using lib8080 for *;\n  using lib9090 for *;\n\n  lib7070.input7070Map map7;\n  lib8080.input8080Map map8;\n  lib9090.input9090Map map9;\n\n  uint tempNow_7;\n  uint tempNow_8;\n  uint tempNow_9;\n\n  function Read() public {\n    // constructor\n    map8.setAllowedID(11);\n    map8.setAllowedID(12);\n  }\n\n  function read7070(uint8 _mc) public {\n    map7.readInput(now, _mc);\n    tempNow_7 = now;\n  }\n\n  function read8080(uint _id, int8 _p, uint32 _ti, uint32 _te) public {\n    map8.readInput(now, _id, _p, _ti, _te);\n    tempNow_8 = now;\n  }\n\n  function read9090(uint8 _p, bool _dir, uint32 _e) public {\n    map9.readInput(now, _p, _dir, _e);\n    tempNow_9 = now;\n  }\n\n  function get7070() view public returns (uint8) {\n    return map7.inputMap[tempNow_7].maxCurrent;\n  }\n\n  function get8080(uint _id) view public returns (int8 _p, uint32 _ti, uint32 _te) {\n    _p = map8.inputMap[_id][tempNow_8].power;\n    _ti = map8.inputMap[_id][tempNow_8].totalImport;\n    _te = map8.inputMap[_id][tempNow_8].totalExport;\n  }\n\n  function get9090() view public returns (uint8 _p, bool _dir, uint32 _e) {\n    _p = map9.inputMap[tempNow_9].power;\n    _dir = map9.inputMap[tempNow_9].direction;\n    _e = map9.inputMap[tempNow_9].energy;\n  }\n}\n",
  "sourcePath": "C:\\Users\\qianc\\Documents\\Selber\\selber_eth_poc\\contracts\\Read.sol",
  "compiler": {
    "name": "solc",
    "version": "0.4.18+commit.9cf6e910.Emscripten.clang"
  },
  "schemaVersion": "1.0.1",
  "updatedAt": "2018-02-24T19:12:21.900Z"
}